{
  "contractName": "IoTStrongAuth",
  "abi": [
    {
      "inputs": [],
      "stateMutability": "nonpayable",
      "type": "constructor"
    },
    {
      "anonymous": false,
      "inputs": [
        {
          "indexed": true,
          "internalType": "address",
          "name": "device",
          "type": "address"
        },
        {
          "indexed": false,
          "internalType": "bool",
          "name": "success",
          "type": "bool"
        }
      ],
      "name": "AuthSuccess",
      "type": "event"
    },
    {
      "anonymous": false,
      "inputs": [
        {
          "indexed": false,
          "internalType": "address",
          "name": "device",
          "type": "address"
        }
      ],
      "name": "DeviceRegistered",
      "type": "event"
    },
    {
      "anonymous": false,
      "inputs": [
        {
          "indexed": false,
          "internalType": "address",
          "name": "device",
          "type": "address"
        }
      ],
      "name": "DeviceRevoked",
      "type": "event"
    },
    {
      "inputs": [],
      "name": "admin",
      "outputs": [
        {
          "internalType": "address",
          "name": "",
          "type": "address"
        }
      ],
      "stateMutability": "view",
      "type": "function",
      "constant": true
    },
    {
      "inputs": [
        {
          "internalType": "address",
          "name": "",
          "type": "address"
        }
      ],
      "name": "nonces",
      "outputs": [
        {
          "internalType": "uint256",
          "name": "",
          "type": "uint256"
        }
      ],
      "stateMutability": "view",
      "type": "function",
      "constant": true
    },
    {
      "inputs": [
        {
          "internalType": "address",
          "name": "",
          "type": "address"
        }
      ],
      "name": "registeredDevices",
      "outputs": [
        {
          "internalType": "bool",
          "name": "",
          "type": "bool"
        }
      ],
      "stateMutability": "view",
      "type": "function",
      "constant": true
    },
    {
      "inputs": [
        {
          "internalType": "address",
          "name": "device",
          "type": "address"
        }
      ],
      "name": "registerDevice",
      "outputs": [],
      "stateMutability": "nonpayable",
      "type": "function"
    },
    {
      "inputs": [
        {
          "internalType": "address",
          "name": "device",
          "type": "address"
        }
      ],
      "name": "revokeDevice",
      "outputs": [],
      "stateMutability": "nonpayable",
      "type": "function"
    },
    {
      "inputs": [
        {
          "internalType": "address",
          "name": "device",
          "type": "address"
        },
        {
          "internalType": "uint256",
          "name": "nonce",
          "type": "uint256"
        }
      ],
      "name": "getMessageHash",
      "outputs": [
        {
          "internalType": "bytes32",
          "name": "",
          "type": "bytes32"
        }
      ],
      "stateMutability": "pure",
      "type": "function",
      "constant": true
    },
    {
      "inputs": [
        {
          "internalType": "bytes32",
          "name": "messageHash",
          "type": "bytes32"
        }
      ],
      "name": "getEthSignedMessageHash",
      "outputs": [
        {
          "internalType": "bytes32",
          "name": "",
          "type": "bytes32"
        }
      ],
      "stateMutability": "pure",
      "type": "function",
      "constant": true
    },
    {
      "inputs": [
        {
          "internalType": "bytes32",
          "name": "messageHash",
          "type": "bytes32"
        },
        {
          "internalType": "uint8",
          "name": "v",
          "type": "uint8"
        },
        {
          "internalType": "bytes32",
          "name": "r",
          "type": "bytes32"
        },
        {
          "internalType": "bytes32",
          "name": "s",
          "type": "bytes32"
        }
      ],
      "name": "authenticate",
      "outputs": [
        {
          "internalType": "bool",
          "name": "",
          "type": "bool"
        }
      ],
      "stateMutability": "nonpayable",
      "type": "function"
    },
    {
      "inputs": [
        {
          "internalType": "bytes32",
          "name": "messageHash",
          "type": "bytes32"
        },
        {
          "internalType": "uint8",
          "name": "v",
          "type": "uint8"
        },
        {
          "internalType": "bytes32",
          "name": "r",
          "type": "bytes32"
        },
        {
          "internalType": "bytes32",
          "name": "s",
          "type": "bytes32"
        }
      ],
      "name": "isAuthenticated",
      "outputs": [
        {
          "internalType": "bool",
          "name": "",
          "type": "bool"
        }
      ],
      "stateMutability": "view",
      "type": "function",
      "constant": true
    },
    {
      "inputs": [
        {
          "internalType": "address",
          "name": "device",
          "type": "address"
        }
      ],
      "name": "getNonce",
      "outputs": [
        {
          "internalType": "uint256",
          "name": "",
          "type": "uint256"
        }
      ],
      "stateMutability": "view",
      "type": "function",
      "constant": true
    }
  ],
  "bytecode": "0x608060405234801561000f575f80fd5b50335f806101000a81548173ffffffffffffffffffffffffffffffffffffffff021916908373ffffffffffffffffffffffffffffffffffffffff160217905550610d8a8061005c5f395ff3fe608060405234801561000f575f80fd5b506004361061009c575f3560e01c80636fe3c2b2116100645780636fe3c2b21461017c5780637ecebe0014610198578063b8f8bbdf146101c8578063f851a440146101f8578063fa540801146102165761009c565b80632c36333b146100a05780632d0335ab146100d05780634d7ae2bf14610100578063512c91df146101305780636dc7b9a514610160575b5f80fd5b6100ba60048036038101906100b59190610897565b610246565b6040516100c79190610915565b60405180910390f35b6100ea60048036038101906100e59190610988565b610349565b6040516100f791906109cb565b60405180910390f35b61011a60048036038101906101159190610897565b61038f565b6040516101279190610915565b60405180910390f35b61014a60048036038101906101459190610a0e565b61053e565b6040516101579190610a5b565b60405180910390f35b61017a60048036038101906101759190610988565b610570565b005b61019660048036038101906101919190610988565b61068b565b005b6101b260048036038101906101ad9190610988565b6107a6565b6040516101bf91906109cb565b60405180910390f35b6101e260048036038101906101dd9190610988565b6107bb565b6040516101ef9190610915565b60405180910390f35b6102006107d8565b60405161020d9190610a83565b60405180910390f35b610230600480360381019061022b9190610a9c565b6107fb565b60405161023d9190610a5b565b60405180910390f35b5f80610251866107fb565b90505f6001828787876040515f81526020016040526040516102769493929190610ad6565b6020604051602081039080840390855afa158015610296573d5f803e3d5ffd5b50505060206040510351905060015f8273ffffffffffffffffffffffffffffffffffffffff1673ffffffffffffffffffffffffffffffffffffffff1681526020019081526020015f205f9054906101000a900460ff16801561033d575061033a8160025f8473ffffffffffffffffffffffffffffffffffffffff1673ffffffffffffffffffffffffffffffffffffffff1681526020019081526020015f205461053e565b87145b92505050949350505050565b5f60025f8373ffffffffffffffffffffffffffffffffffffffff1673ffffffffffffffffffffffffffffffffffffffff1681526020019081526020015f20549050919050565b5f8061039a866107fb565b90505f6001828787876040515f81526020016040526040516103bf9493929190610ad6565b6020604051602081039080840390855afa1580156103df573d5f803e3d5ffd5b5050506020604051035190505f60015f8373ffffffffffffffffffffffffffffffffffffffff1673ffffffffffffffffffffffffffffffffffffffff1681526020019081526020015f205f9054906101000a900460ff16801561048757506104848260025f8573ffffffffffffffffffffffffffffffffffffffff1673ffffffffffffffffffffffffffffffffffffffff1681526020019081526020015f205461053e565b88145b905080156104e25760025f8373ffffffffffffffffffffffffffffffffffffffff1673ffffffffffffffffffffffffffffffffffffffff1681526020019081526020015f205f8154809291906104dc90610b46565b91905055505b8173ffffffffffffffffffffffffffffffffffffffff167f4a01a1cbd17d13c0637da48c5cc4451c8126786dc53de5af61c8443e9934cd8b826040516105289190610915565b60405180910390a2809350505050949350505050565b5f8282604051602001610552929190610bf2565b60405160208183030381529060405280519060200120905092915050565b5f8054906101000a900473ffffffffffffffffffffffffffffffffffffffff1673ffffffffffffffffffffffffffffffffffffffff163373ffffffffffffffffffffffffffffffffffffffff16146105fd576040517f08c379a00000000000000000000000000000000000000000000000000000000081526004016105f490610c9d565b60405180910390fd5b6001805f8373ffffffffffffffffffffffffffffffffffffffff1673ffffffffffffffffffffffffffffffffffffffff1681526020019081526020015f205f6101000a81548160ff0219169083151502179055507f05d7f0c690676ba31675b45bcdb9ff4c34bb10744ec89d329eacd93c79ecc029816040516106809190610a83565b60405180910390a150565b5f8054906101000a900473ffffffffffffffffffffffffffffffffffffffff1673ffffffffffffffffffffffffffffffffffffffff163373ffffffffffffffffffffffffffffffffffffffff1614610718576040517f08c379a000000000000000000000000000000000000000000000000000000000815260040161070f90610c9d565b60405180910390fd5b5f60015f8373ffffffffffffffffffffffffffffffffffffffff1673ffffffffffffffffffffffffffffffffffffffff1681526020019081526020015f205f6101000a81548160ff0219169083151502179055507fb7896bf18218065eb3c22f8037c218ee06d9c424caaf91762ac90a3af674ba9a8160405161079b9190610a83565b60405180910390a150565b6002602052805f5260405f205f915090505481565b6001602052805f5260405f205f915054906101000a900460ff1681565b5f8054906101000a900473ffffffffffffffffffffffffffffffffffffffff1681565b5f8160405160200161080d9190610d2f565b604051602081830303815290604052805190602001209050919050565b5f80fd5b5f819050919050565b6108408161082e565b811461084a575f80fd5b50565b5f8135905061085b81610837565b92915050565b5f60ff82169050919050565b61087681610861565b8114610880575f80fd5b50565b5f813590506108918161086d565b92915050565b5f805f80608085870312156108af576108ae61082a565b5b5f6108bc8782880161084d565b94505060206108cd87828801610883565b93505060406108de8782880161084d565b92505060606108ef8782880161084d565b91505092959194509250565b5f8115159050919050565b61090f816108fb565b82525050565b5f6020820190506109285f830184610906565b92915050565b5f73ffffffffffffffffffffffffffffffffffffffff82169050919050565b5f6109578261092e565b9050919050565b6109678161094d565b8114610971575f80fd5b50565b5f813590506109828161095e565b92915050565b5f6020828403121561099d5761099c61082a565b5b5f6109aa84828501610974565b91505092915050565b5f819050919050565b6109c5816109b3565b82525050565b5f6020820190506109de5f8301846109bc565b92915050565b6109ed816109b3565b81146109f7575f80fd5b50565b5f81359050610a08816109e4565b92915050565b5f8060408385031215610a2457610a2361082a565b5b5f610a3185828601610974565b9250506020610a42858286016109fa565b9150509250929050565b610a558161082e565b82525050565b5f602082019050610a6e5f830184610a4c565b92915050565b610a7d8161094d565b82525050565b5f602082019050610a965f830184610a74565b92915050565b5f60208284031215610ab157610ab061082a565b5b5f610abe8482850161084d565b91505092915050565b610ad081610861565b82525050565b5f608082019050610ae95f830187610a4c565b610af66020830186610ac7565b610b036040830185610a4c565b610b106060830184610a4c565b95945050505050565b7f4e487b71000000000000000000000000000000000000000000000000000000005f52601160045260245ffd5b5f610b50826109b3565b91507fffffffffffffffffffffffffffffffffffffffffffffffffffffffffffffffff8203610b8257610b81610b19565b5b600182019050919050565b5f8160601b9050919050565b5f610ba382610b8d565b9050919050565b5f610bb482610b99565b9050919050565b610bcc610bc78261094d565b610baa565b82525050565b5f819050919050565b610bec610be7826109b3565b610bd2565b82525050565b5f610bfd8285610bbb565b601482019150610c0d8284610bdb565b6020820191508190509392505050565b5f82825260208201905092915050565b7f4f6e6c792061646d696e2063616e20706572666f726d207468697320616374695f8201527f6f6e000000000000000000000000000000000000000000000000000000000000602082015250565b5f610c87602283610c1d565b9150610c9282610c2d565b604082019050919050565b5f6020820190508181035f830152610cb481610c7b565b9050919050565b5f81905092915050565b7f19457468657265756d205369676e6564204d6573736167653a0a3332000000005f82015250565b5f610cf9601c83610cbb565b9150610d0482610cc5565b601c82019050919050565b5f819050919050565b610d29610d248261082e565b610d0f565b82525050565b5f610d3982610ced565b9150610d458284610d18565b6020820191508190509291505056fea26469706673582212208336c18d768f1b925aeecfc2b1266042572eef90aac02358efe7b5b2bfd536a664736f6c63430008150033",
  "immutableReferences": {},
  "source": "// SPDX-License-Identifier: MIT\npragma solidity ^0.8.0;\n\ncontract IoTStrongAuth {\n    address public admin;\n    mapping(address => bool) public registeredDevices;\n    mapping(address => uint256) public nonces;\n\n    event DeviceRegistered(address device);\n    event DeviceRevoked(address device);\n    event AuthSuccess(address indexed device, bool success);\n\n    constructor() {\n        admin = msg.sender;\n    }\n\n    modifier onlyAdmin() {\n        require(msg.sender == admin, \"Only admin can perform this action\");\n        _;\n    }\n\n    function registerDevice(address device) public onlyAdmin {\n        registeredDevices[device] = true;\n        emit DeviceRegistered(device);\n    }\n\n    function revokeDevice(address device) public onlyAdmin {\n        registeredDevices[device] = false;\n        emit DeviceRevoked(device);\n    }\n\n    function getMessageHash(address device, uint256 nonce) public pure returns (bytes32) {\n        return keccak256(abi.encodePacked(device, nonce));\n    }\n\n    function getEthSignedMessageHash(bytes32 messageHash) public pure returns (bytes32) {\n        return keccak256(\n            abi.encodePacked(\"\\x19Ethereum Signed Message:\\n32\", messageHash)\n        );\n    }\n\n    function authenticate(bytes32 messageHash, uint8 v, bytes32 r, bytes32 s) public returns (bool) {\n        bytes32 ethSignedMessageHash = getEthSignedMessageHash(messageHash);\n        address signer = ecrecover(ethSignedMessageHash, v, r, s);\n        bool success = (registeredDevices[signer] && messageHash == getMessageHash(signer, nonces[signer]));\n        if (success) {\n            nonces[signer]++;\n        }\n        emit AuthSuccess(signer, success);\n        return success;\n    }\n\n    function isAuthenticated(bytes32 messageHash, uint8 v, bytes32 r, bytes32 s) public view returns (bool) {\n        bytes32 ethSignedMessageHash = getEthSignedMessageHash(messageHash);\n        address signer = ecrecover(ethSignedMessageHash, v, r, s);\n        return (registeredDevices[signer] && messageHash == getMessageHash(signer, nonces[signer]));\n    }\n\n    function getNonce(address device) public view returns (uint256) {\n        return nonces[device];\n    }\n}\n",
  "sourcePath": "/Users/nathansatge/UQAC/8INF917 - Securite informatique pour l'Internet des Objets/ProjetV4/contracts/IoTStrongAuth.sol",
  "compiler": {
    "name": "solc",
    "version": "0.8.21+commit.d9974bed.Emscripten.clang"
  },
  "schemaVersion": "3.4.16",
  "updatedAt": "2025-04-14T14:43:06.514Z",
  "networkType": "ethereum",
  "devdoc": {
    "kind": "dev",
    "methods": {},
    "version": 1
  },
  "userdoc": {
    "kind": "user",
    "methods": {},
    "version": 1
  }
}